:0400000080311A2809
:100008007E1480312100911F10282000911F102894
:100018008E318126803118282100911C1828200053
:10002800911C18288E318C267E10090080311C28DE
:10003800DF30840087308500453086000030870037
:1000480019308731F8278031773084008E30850069
:10005800C9308600003087000A308731F8278031A0
:10006800203084000030850025308E3171268031A3
:10007800A03084000030850029308E31712680310F
:100088007E1020004728552080318B170B176826D3
:1000980080312A2280316400D7238031AE2280311A
:1000A8004F28C420803155303C008F00AA308F0083
:1000B8000F1005302000E7000230E801E80A182197
:1000C800803103302000E7000230E801E80A3521DA
:1000D800803102302000E7000030E801E80A7B2187
:1000E800803120000230E701E70AE801E80A9E2192
:1000F800803107302000E7000230E801E80AC0211B
:10010800803107302000DE000130DF01DF0AD8200F
:1001180080310730DE000130BE2080313C00930082
:1001280003302000DE00F430DF01E0000E30E10093
:100138000030DD218031DE01DF0101228031FE2126
:100148008031DA2180310F302000DE006430DF009A
:100158000430E00000300F228031F9302522803150
:10016800282280317C2355303C008F00AA308F0034
:100178000F140800DF000907090709075E040800D3
:10018800320019088F3960389900F03099059B01C1
:100198009D131D171D129D151D111F08F0390638D6
:1001A8009F00C0309E050800E100E2000130E00039
:1001B8005E0ADF28E035890BDE286008E3000D2998
:1001C80062088C3E860001308701873D6308810400
:1001D80062088C3E860000308701873D63088104F1
:1001E800080099238031B323630981050800992306
:1001F8008031B32363088104080099238031BC232C
:1002080063088104080099238031BC2363098105B0
:1002180008005F08840005300402031808008831CC
:100228000435923E82000800E9006708DE000430C9
:10023800DF006908D82080316708DE000C30DF0055
:10024800690855212500931713160F3093041F08CA
:1002580020006806FC39680625009F00920191017C
:100268000800EA006708DE000430DF006A08D820CA
:1002780080316708DE000D30DF006A0855218031C3
:100288002500C5236808E900E90DE90D25001F08C8
:1002980020006906F339690625009F00960195013B
:1002A8000800E600003A03196029013A0319632996
:1002B800033A031977297A295E08903EA82B5E082D
:1002C800E0009830E101E2000E30E30060086207C8
:1002D800E4006108633DE50064088600650887005E
:1002E8005F08810008005E08A03EA82B0800EA000D
:1002F8006708DE000430DF006A08D820803167080C
:10030800DE000E30DF006A08552126009317131609
:100318000F30930420006808E900E90E25001F0843
:1003280020006906CF39690625009F002600920142
:1003380091010800EA006708DE000430DF006A085F
:10034800D82080316708DE000F30DF006A085521A9
:1003580080312600C5236808E900E90EE90DE90D9A
:1003680025001F08200069063F39690625009F00FF
:100378002600960195010800E9006708DE000430B0
:10038800DF006908D82080316708DE000230DF000E
:10039800690855212C0099171F0820006806FC39A8
:1003A80068062C009F00980197010800210091170A
:1003B8000800E300E200E20EE20DE20D1B0862060F
:1003C8003F3962069B005E08E200E20E1B086206E7
:1003D800CF3962069B009C171C179C121C129C119B
:1003E8001C085F06FC395F069C006108C0006008B5
:1003F800BF00080020001B1408001B1D0A2A1B1040
:100408005F089A005E0899001B1408005F089A00AC
:100418005E0899000800E2001F086206FC396206BF
:100428009F005E08E100E10DE10DE10D1F08610686
:10043800873961069F009D016008BE005F08BD0006
:100448000800DE009E0008001F1508002100201C7F
:100458009C2A9E228031892AE8302000AB00033094
:10046800AC00E830AD000330AE002C30AF000130F6
:10047800B0002C30B1000130B200C830B300B40174
:1004880008002000F430AB01AC01AD000130AE0033
:10049800F430AF01B001B1000130B200F430B30064
:1004A8000130B40008002000E830AB01AC01AD0118
:1004B800AE01AF000330B000F430B1000130B2003B
:1004C800B301B4010800BC302000AB000230AC001E
:1004D800F430AD000130AE00E830AF000330B000BA
:1004E800B101B201B301B40108002000DF015F359A
:1004F800453E860087015F352B3E2B26803105302F
:10050800DF0A5F02031808007B2A2100200C7F39CC
:10051800013A0319302A033A0319452A063A0319FE
:10052800572A0C3A0319672A183A0319792A9D2A77
:10053800832308002000DE015E35A13E8600870186
:100548005E352B3E2B2680310530DE0A5E0203180D
:100558000800A02A3B1C08003B10B72280318F23DB
:10056800FF30C4000800162B792380312A2A76230D
:100578008031BA2A43238031003A03190800200049
:10058800440824238031EB006B354F3E86008701F9
:10059800403FDE00413FDF006B08232780317F2B7F
:1005A80043238031003A031908002000440824231B
:1005B8008031D1238031E6006B354F3E8600403FC5
:1005C800E700413FE8006B08752F43238031003A6C
:1005D800031908002000440824238031D1238031E6
:1005E800E600E701E8016B08422F44082423803124
:1005F800EB000130EA006B0A022BEA35890B012B6C
:100608006A08EB006A238031BA2A43238031003A12
:10061800031908002000440824238031EB004523F7
:100628008031D32A4408FF3E031C080084001B3095
:1006380004020318080088310435003E82000800CF
:10064800DE00FF30DF00342BDF01412BDF01DF0A42
:10065800412B0230322B0330322B0430DF00412B88
:100668005E08FB3E031C412B84001730040203186C
:10067800412B88310435363E82005F0808008F31EF
:10068800FC2FE400E5016508E100AB30E1356107C6
:10069800E2000A30DE006408E92680316207E300E0
:1006A800860087016535A13E2B2680316535A13E40
:1006B800860065352B3E8400403F803F413F813FA7
:1006C8000530E50A650203180800472BDF00DE0045
:1006D800DE0D2100200820005E0601395E0621009B
:1006E800A0000800210020100800210020140800A4
:1006F80021009114080001302100A0050800200005
:10070800DE015E352B3ECB2380310530DE0A5E02EA
:1007180003180800852B10302000E2007030E30039
:10072800A030E4002930E500A82F62088C3E86003E
:1007380001308701873D6309810562088C3E860088
:1007480000308701873D0800E0000E30E101E13DFF
:1007580060088600610887005F0881000800630858
:10076800810462080C3E860002308701873D08003C
:100778006309810562080C3E860001308701873DC8
:100788000800971717160F309704200008008600F6
:1007980000308701C03FC13F0800EB00593E86008A
:1007A8008701010808002000111C080011106224AC
:1007B8008031DE01DF0101228031BC01BB1C1D2C10
:1007C800BB10E92B8F238031122C4408053A0319FA
:1007D800E62B033A0319E62B013A0319E62B0E3AE6
:1007E8000319E62B033A0319E62B073A0319E62BFC
:1007F800033A0319E62B1F3A0319E62B033A0319A8
:10080800E62B073A0319E62B033A0319E62B0F3AAE
:100818000319E62B033A0319E62B122CFF30C40008
:10082800462C49248031003A031D462C20003B14F5
:10083800462C4408053A03191A2C033A03191A2CB2
:10084800013A03191A2C0E3A0319152C033A031905
:10085800152C073A0319152C033A0319152C1F3ABE
:100868000319152C033A0319152C073A0319152CEB
:10087800033A0319152C0F3A0319152C033A0319D7
:10088800152C462C7C238031FE29632680310319E0
:100898000134200C7F39023A03190134200C7F39C6
:1008A800043A03190134200C7F39083A031901343A
:1008B800200C7F39103A0319013400341B1008004A
:1008C800A01C672CAF2DC10A41080339031D6F2CEA
:1008D800C10170248031EC2DBB1C0800FD2480313F
:1008E800003A031D080020004408053A0319C92CE2
:1008F800033A0319C92C013A0319C92C0E3A0319F2
:10090800B82C033A0319A12C073A0319B82C033A57
:100918000319A12C1F3A0319B82C033A0319A12C67
:10092800073A0319B82C033A0319A12C0F3A0319F3
:10093800B82C033A0319A12CDD2C5D268031031D48
:100948000800B701B8014408DE248031FC000430F7
:10095800F8007C354F3E86008701403FF900413F53
:10096800FA007C087C2508005D268031031D0800FC
:10097800B701B8014408DE248031FC000430F800D7
:10098800F901FA017C0849250800B70A0319B80AD1
:10099800EE303706023003193806031D0800B70188
:1009A800B8014408DE248031FC001625803101306E
:1009B8003D2D0800F000FF30F100EE2CF101FB2C7A
:1009C800F101F10AFB2C0230EC2C0330EC2C043042
:1009D800F100FB2C7008FB3E031CFB2C8400173035
:1009E80004020318FB2C88310435643E8200710828
:1009F80008006326803103190134200C7F39023A3C
:100A080003190134200C7F39043A03190134200CEE
:100A18007F39083A03190134200C7F39103A031939
:100A280001340034F600F7017735A13E86008701CE
:100A38007708F300AB30F3357307F4000A30F000A1
:100A48007608312580317407F5002B268031053072
:100A5800F70A770203180800182DF100F201700850
:100A68007118F207F035F1367108031D332D72083D
:100A78000800F100F000F00DF00D200020087006CD
:100A880003397006A000A0140800FB007808F000E5
:100A98007A08F2007908F1007B35A13E5C258031A7
:100AA8007B35A13E860087017B352B3E2B2608002F
:100AB800F70086008701403FF300413FF4007008CB
:100AC8007107F50072080318720AF60074087602B6
:100AD800031D702D730875027708860087010318B7
:100AE800772D70084C2E7108C03F7208C13F08006E
:100AF800FB007808F0007A08F2007908F1007B35ED
:100B0800A13E8F2580317B35A13E860087017B354C
:100B18002B3E2B260800F70086008701403FF30094
:100B2800413FF40070087307F50074080318740A4D
:100B3800F60072087602031DA32D71087502770866
:100B4800860087010318AA2D7008522E7108C03F2D
:100B58007208C13F0800200C890C3F390319D62DB3
:100B6800B50A0319B60A3508F00001303605F10058
:100B78007004031D0800201CD22DE3252000200C42
:100B8800F000700C3F39F000F003F00DF00D200874
:100B9800700603397006A00020100800DA2520002E
:100BA80020140800A010B501B60108002500931311
:100BB80097132600931397132C0099130800250008
:100BC800931797172600931797172C009917080063
:100BD800FA017A352B3E44268031213E3226803177
:100BE8000318FD2D57268031810741310318810AEA
:100BF800152E7A35213E442680312B3E322680310F
:100C080003180E2E57268031810200304131813B76
:100C18007F31152E7A352B3E860087017A35213EA5
:100C28002B267A35213E86008701403FF000413F60
:100C3800F1007A35C93E8600413F8A00403F0A00EC
:100C480005308631FA0A7A0203180800ED2D84006F
:100C58008501403F803F413F813F08008600403F7B
:100C6800F600413FF7007608013EF8000030773D76
:100C7800F90075087902031D080074087802080055
:100C880086008701403FF400413FF5007A350800AF
:100C980081024131031C81037F3108008107413102
:100CA8000318810A08007A35213E86000130870141
:100CB8000800B70A0319B80A3708033908002100E1
:100CC800200C7F39013A080010302000E000703015
:100CD800E100A030E2002930E300F5268031210050
:100CE800200C7F39013A03198F2E200C7F39023AE4
:100CF80003198F2E200C7F39043A03198F2E200CEC
:100D08007F39083A03198F2E200C7F39103A0319BE
:100D18008F2E0130A0052000ED016D35A13E860023
:100D28008701403FE500413FE6006D35453E8600BE
:100D3800403FE700413FE80066086802031DA62E11
:100D4800650867020318B02E6D35453E8600870199
:100D58006D35A13E2B2680310530ED0A6D02031C4E
:100D6800912EEC01EE0119278031E92680316607C2
:100D7800E70086008701403FE800413FE9006E3503
:100D8800453E8600403FEA00413FEB0069086B02A0
:100D9800031DD02E68086A020318DE2E6E35453E04
:100DA8008600870119278031E92680316607E70028
:100DB8002B2680310530EE0A6E02031CB72E033055
:100DC800EC0A6C0203180800B62EE000DF015E088A
:100DD8006018DF07DE35E0366008031DEB2E5F087C
:100DE80008006308E4006408031908006208860024
:100DF80087016108DF006008DE000B278031810071
:100E08002000E00A0319E10AE20AE403F72E5F086A
:100E18003100920020005E0831009100151715146A
:100E2800000000003100130808006E08E500AB3030
:100E3800E5356507E6000A30DE006C080800E000CA
:100E4800E1016135A13ECB23803161352B3E86001F
:100E58000030C03FC13F0530E10A6102031C252F65
:100E68006035A13E86005E08C03F5F08C13F60351F
:100E7800A13E860060352B3E2B260800E900660857
:100E8800DE006808E0006708DF006935A13E5527E5
:100E980080316935A13E8600870169352B3E2B26B6
:100EA8000800E50086008701403FE100413FE2007D
:100EB8005E085F07E30060080318600AE400620840
:100EC8006402031D692F61086302650886008701B3
:100ED8000318702F5E084C2E5F08C03F6008C13FA2
:100EE8000800E9006608DE006808E0006708DF001F
:100EF8006935A13E882780316935A13E8600870182
:100F080069352B3E2B260800E50086008701403F07
:100F1800E100413FE2005E086107E3006208031850
:100F2800620AE40060086402031D9C2F5F086302E4
:100F38006508860087010318A32F5E08522E5F08F4
:100F4800C03F6008C13F08006508E600660803194D
:100F580008006308DF006208DE0064088600870175
:100F68000108E000BE278031E40AE20A0319E30A17
:100F7800E603AA2F00308B1B0130E1005F08310027
:100F8800920020005E0831009100200060083100C6
:100F98009300151715158B1355309600AA30960037
:100FA80095149518D52F15112000610C031C8B136F
:100FB80003188B17080058340234583402342C3480
:100FC8000134EE340234EE340234583402345834E6
:100FD80002342C340134EE340234EE3402343C341E
:100FE8003C341E344B344B34FE0012001E00FE0B02
:040FF800F92F003499
:101000008231B82A8231BB2A8331232B8331232BAF
:101010008331092B8331092B8331092B8231BE2A7D
:101020008231E92A8231D42A8231F92A8231BE2AD8
:101030008231E92A8231D42A8231F92A8231BE2AC8
:101040008231E92A8231D42A8231F92A8231BE2AB8
:101050008231E92A8231D42A8231F92A8231BE2AA8
:101060008231E92A8231D42A8231F92A8331282B2C
:1010700083312A2B83312D2B8331282B8331282B4D
:101080008331282B8331282B83312A2B83312A2B40
:1010900083312A2B83312A2B83312D2B83312D2B26
:1010A00083312D2B83312D2B83312F2B83312F2B0C
:1010B00083312F2B83312F2B8331312B8331312BF4
:1010C0008331312B8331312B8431E22C8431E42C78
:1010D0008431E72C8431E22C8431E22C8431E22CFF
:1010E0008431E22C8431E42C8431E42C8431E42CEE
:1010F0008431E42C8431E72C8431E72C8431E72CD3
:101100008431E72C8431E92C8431E92C8431E92CB9
:101110008431E92C8431EB2C8431EB2C8431EB2CA1
:101120008431EB2C8031E4288031F5288031FB2894
:081130008131012981310729F9
:101CE200640080010131890B722E0034B8340E3445
:101CF200A4340E34CC340E34E0340E3497340E3423
:101D020091133F0840040319080040088A003F0865
:101D12000A008E31080091103D083E0403190800A4
:101D22003E088A003D080A008E3108007108F3005F
:101D32007008F200F336F20CF336F20C72082C0043
:101D42009800970108007108F3007008F200F3365A
:101D5200F20CF336F20C7208250092007008033977
:101D6200F200F20CF20C720CC039910008007108FA
:101D7200F3007008F200F336F20CF336F20C72083C
:101D82002500960070080339F200F20CF20C720C76
:101D9200C039950008007108F3007008F200F336AC
:101DA200F20CF336F20C7208260092007008033926
:101DB200F200F20CF20C720CC039910008007108AA
:101DC200F3007008F200F336F20CF336F20C7208EC
:101DD2002600960070080339F200F20CF20C720C25
:101DE200C03995000800FA01D7278E317108FD002D
:101DF2007008FC00F001F101E8278E31C82F06308F
:101E02007D02D73003197C02031C08000A307D02D0
:101E1200BE3003197C0203180800BC01BC0AB901D8
:101E2200BA01C301F92F00307D02DD3003197C02B3
:101E3200031C242F01307D02903003197C02031809
:101E4200242FC30A412F02307D02D13003197C02B4
:101E5200031C402F03307D02E83003197C02031873
:101E6200402F0130F600F701430A392FF635F70DFE
:101E7200890B372F7608B9047708BA04222FBC01E0
:101E820010304302031C08003C0B4F2F3A0A39045E
:101E9200031D4D2F0230A62FBC01AE2F02303C068F
:101EA200031DAE2FF6278E3120003908FB003A08B9
:101EB200FA007A0F5E2F01305F2F0030F600F70133
:101EC2007B06F8007708F90078040319AE2F7B0827
:101ED200C400E7278E31003A0319AA2F05302000EB
:101EE20044060319A42F063044060319A42F073011
:101EF20044060319A42F0A3044060319A42F0930FB
:101F020044060319A42F0E3044060319A42F0D30E2
:101F120044060319A42F123044060319A42F1130CA
:101F220044060319A42F163044060319A42F1530B2
:101F320044060319A42F1A3044060319A42F19309A
:101F42004406031DA82F0330C201BC00AE2F3B1470
:101F52004D2F2000440BAE2FA82FB901BA01C301A7
:101F6200080003307D02E93003197C02031C0800DB
:101F720004307D02E23003197C02031808000430A9
:101F820042020318C62FC20A0800BB1408003C080C
:101F9200003A0319002F013A0319142F033A0319C7
:101FA200142F013A0319B22FD62F0800F401F501BC
:101FB2001A08F4001908F5007408F300F201750814
:101FC200F2047308F1007208F0000800FC2F1B1DD8
:101FD200F12F1B1071089A00700899001B14080059
:101FE20071089A00700899000800210091140800F5
:0E1FF20021009110080021002008013908008C
:020000040001F9
:08000E00ECDF3DFDFFFFFFFFE9
:00000001FF
