:0400000080311A2809
:100008007E1480312100911F10282000911F102894
:100018008731D827803118282100911C1828200002
:10002800911C18288731CD277E10090080311C28A3
:1000380057308400873085004530860000308700BF
:1000480019308731F7278031E33084008730850005
:10005800D3308600003087000A308731F727803197
:10006800203084000030850025308D31C325803153
:10007800A03084000030850033308D31C3258031B5
:100088007E1020004728552080318B170B17DF245E
:1000980080312A2280316400A32280319A22803163
:1000A8004F28C420803155303C008F00AA308F0083
:1000B8000F1005302000E7000230E801E80A182197
:1000C800803103302000E7000230E801E80A3521DA
:1000D800803102302000E7000030E801E80A7B2187
:1000E800803120000230E701E70AE801E80A9E2192
:1000F800803107302000E7000230E801E80AC0211B
:10010800803107302000DE000130DF01DF0AD8200F
:1001180080310730DE000130BE2080313C00930082
:1001280003302000DE004630DF01E0000630E10049
:100138000030DD218031DE01DF0101228031FE2126
:100148008031DA2180310F302000DE00C930DF0035
:100158000D30E00000300F228031F9302522803147
:10016800282280311B2355303C008F00AA308F0095
:100178000F140800DF000907090709075E040800D3
:10018800320019088F3960389900F03099059B01C1
:100198009D131D171D129D151D111F08F0390638D6
:1001A8009F00C0309E050800E100E2000130E00039
:1001B8005E0ADF28E035890BDE286008E3000D2998
:1001C80062088C3E860001308701873D6308810400
:1001D80062088C3E860000308701873D63088104F1
:1001E8000800F72580312226630981050800F725D4
:1001F80080312226630881040800F72580312B26E8
:10020800630881040800F72580312B2663098105DE
:1002180008005F08840005300402031808008731CD
:100228000435ED3E82000800E9006708DE0004306E
:10023800DF006908D82080316708DE000C30DF0055
:10024800690855212500931713160F3093041F08CA
:1002580020006806FC39680625009F00920191017C
:100268000800EA006708DE000430DF006A08D820CA
:1002780080316708DE000D30DF006A0855218031C3
:1002880025003A266808E900E90DE90D25001F0850
:1002980020006906F339690625009F00960195013B
:1002A8000800E600003A03196029013A0319632996
:1002B800033A031977297A295E08903E0D2E5E08C5
:1002C800E0009830E101E2000E30E30060086207C8
:1002D800E4006108633DE50064088600650887005E
:1002E8005F08810008005E08A03E0D2E0800EA00A5
:1002F8006708DE000430DF006A08D820803167080C
:10030800DE000E30DF006A08552126009317131609
:100318000F30930420006808E900E90E25001F0843
:1003280020006906CF39690625009F002600920142
:1003380091010800EA006708DE000430DF006A085F
:10034800D82080316708DE000F30DF006A085521A9
:10035800803126003A266808E900E90EE90DE90D22
:1003680025001F08200069063F39690625009F00FF
:100378002600960195010800E9006708DE000430B0
:10038800DF006908D82080316708DE000230DF000E
:10039800690855212C0099171F0820006806FC39A8
:1003A80068062C009F00980197010800210091170A
:1003B8000800E300E200E20EE20DE20D1B0862060F
:1003C8003F3962069B005E08E200E20E1B086206E7
:1003D800CF3962069B009C171C179C121C129C119B
:1003E8001C085F06FC395F069C006108C0006008B5
:1003F800BF00080020001B1408001B1D0A2A1B1040
:100408005F089A005E0899001B1408005F089A00AC
:100418005E0899000800E2001F086206FC396206BF
:100428009F005E08E100E10DE10DE10D1F08610686
:10043800873961069F009D016008BE005F08BD0006
:100448000800DE009E0008001F1508002100201C7F
:10045800882A8A228031782AE8302000AB000330CD
:10046800AC00E830AD000330AE00C830AF002C302F
:10047800B001B1000130B200C830B300B4010800C7
:10048800BC302000AB000230AC00F430AD000130CD
:10049800AE00E830AF000330B000B101B201B301E3
:1004A800B40108002000F430AB01AC01AD0001300C
:1004B800AE00F430AF01B001B1000130B200F43049
:1004C800B3000130B40008002000E830AB01AC01F3
:1004D800AD01AE01AF000330B000F430B10001301F
:1004E800B200B301B40108002100200C7F39013AA1
:1004F8000319302A033A0319442A063A0319562ADB
:100508000C3A0319682A892A3F2308002000DE01D3
:100518005E35A13E860087015E352B3E062680317A
:100528000530DE0A5E02031808008C2A3B1C08000E
:100538003B10822380311E23FF30C40008002000B6
:10054800111C080011103D238031DE01DF0101225A
:100558008031BC01BB1CEC2ABB10B52A1E2380319C
:10056800E12A4408043A0319B22A093A0319B22ABB
:10057800033A0319B22A013A0319B22A1E3A031997
:10058800B22A033A0319B22A063A0319B22A013ADF
:100598000319B22A033A0319B22A0D3A0319B22AE7
:1005A800063A0319B22A033A0319B22A013A03197F
:1005B800B22A533A0319B22AE12AFF30C400182B91
:1005C80028238031003A031D182B20003B14182BD8
:1005D8004408043A0319E42A093A0319E92A033AB0
:1005E8000319E42A013A0319E42A1E3A0319E42AF2
:1005F800033A0319E42A063A0319E42A013A0319CB
:10060800E92A033A0319E42A0D3A0319E42A063AB7
:100618000319E92A033A0319E42A013A0319E92AD2
:10062800533A0319E42A182B1B238031FE29210091
:100638009114080010302000E2007030E300A03070
:10064800E4003330E5004B2B8F31FB278031031951
:100658000134200C7F39023A03190134200C7F3908
:10066800043A03190134200C7F39083A031901347C
:1006780000341B1008002000DE015E352B3E4026AA
:1006880080310530DE0A5E0203180800412B650838
:10069800E6006608031908006308DF006208DE0048
:1006A8006408860087010108E00061238031E40ABC
:1006B800E20A0319E30AE6034D2B00308B1B0130D5
:1006C800E1005F083100920020005E0831009100CF
:1006D8002000600831009300151715158B1355304D
:1006E8009600AA30960095149518782B15112000BD
:1006F800610C031C8B1303188B170800DE2BD32403
:1007080080312A2A82248031003A03190800200007
:10071800440829248031EB006B354F3E8600870161
:10072800403FDE00413FDF006B08B42480318B2D51
:1007380082248031003A0319080020004408292443
:10074800803134268031E6006B354F3E8600403FCD
:10075800E700413FE8006B08C32D82248031003A4E
:1007680003190800200044082924803134268031E8
:10077800E600E701E8016B088F2D44082924803141
:10078800EB000130EA006B0ACA2BEA35890BC92B4A
:100798006A08EB00A8248031852B82248031003A36
:1007A800031908002000440829248031EB00832421
:1007B80080319B2B4408003A0319C12B043A0319D2
:1007C800B12B0D3A0319832B033A0319862B063AEA
:1007D8000319C12B013A0319D12B033A0319B12B81
:1007E800013A0319B12B1E3A0319B12B033A031925
:1007F8009C2B063A03199C2B013A0319D12B033A77
:100808000319B12B013A0319862B0E3A0319862BCB
:10081800033A0319C12B013A03199C2B073A031910
:10082800862B013A0319D12B033A03199C2B013A61
:100838000319D12B5F3A0319862B0C3A03199C2B09
:10084800013A0319C12B282C0800DE00FF30DF0015
:10085800392CDF01802CDF01DF0A802C0230372C95
:100868000330372C0430DF00802C5E08003A03196F
:100878002F2C043A0319322C0E3A0319342C063A59
:100888000319342C013A0319322C033A0319342C76
:10089800013A0319362C1E3A03192D2C033A031971
:1008A8002F2C063A0319362C013A0319342C033A33
:1008B80003192F2C013A03192F2C0E3A03192D2C4A
:1008C800033A0319322C013A03192D2C073A03195C
:1008D800362C013A03192D2C033A0319342C013A0A
:1008E80003192F2C5F3A0319322C0C3A0319322CB6
:1008F800013A03192D2C802C5F080800532FE400BF
:10090800E5016508E100AB30E1356107E2000A3036
:10091800DE0064085B2580316207E30086008701FA
:100928006535A13E062680316535A13E86006535D0
:100938002B3E8400403F803F413F813F0530E50A20
:10094800650203180800852CDF00DE00DE0D21009B
:10095800200820005E0601395E062100A00008007C
:10096800E000E1016135A13E4026803161352B3E32
:1009780086000030C03FC13F0530E10A6102031C18
:10098800B62C6035A13E86005E08C03F5F08C13FB7
:100998006035A13E860060352B3E06260800031010
:1009A8002100201C0314031CDC2C21002014080047
:1009B80021002010080010302000E0007030E10015
:1009C800A030E2003330E300672580312100200C9D
:1009D8007F39013A0319012D200C7F39023A031996
:1009E800012D200C7F39043A0319012D200C7F3981
:1009F800083A0319012D0130A0052000ED016D35DD
:100A0800A13E86008701403FE500413FE6006D3585
:100A1800453E8600403FE700413FE800660868021F
:100A2800031D182D650867020318222D6D35453EF4
:100A3800860087016D35A13E062680310530ED0A16
:100A48006D02031C032DEC01EE01182680315B2595
:100A580080316607E70086008701403FE800413F94
:100A6800E9006E35453E8600403FEA00413FEB0015
:100A780069086B02031D422D68086A020318502D8D
:100A88006E35453E86008701182680315B2580310A
:100A98006607E700062680310530EE0A6E02031C61
:100AA800292D0430EC0A6C0203180800282DE000F8
:100AB800DF015E086018DF07DE35E0366008031DD9
:100AC8005D2D5F0808006308E40064080319080046
:100AD8006208860087016108DF006008DE007D2566
:100AE800803181002000E00A0319E10AE20AE403E8
:100AF800692D5F083100920020005E0831009100E6
:100B08001517151400000000310013080800013003
:100B18002100A0050800E9006608DE006808E0007A
:100B28006708DF006935A13EA22580316935A13EFD
:100B38008600870169352B3E06260800E5008600F9
:100B48008701403FE100413FE2005E085F07E300A4
:100B580060080318600AE40062086402031DB62DE9
:100B6800610863026508860087010318BE2D5E08C8
:100B78008F31E42F5F08C03F6008C13F0800E900DB
:100B88006608DE006808E0006708DF006935A13EF6
:100B9800D62580316935A13E8600870169352B3E0F
:100BA80006260800E50086008701403FE100413F36
:100BB800E2005E086107E30062080318620AE400C5
:100BC80060086402031DEA2D5F0863026508860059
:100BD80087010318F22D5E088F31EA2F5F08C03FA6
:100BE8006008C13F080062088C3E8600013087011A
:100BF800873D6309810562088C3E860000308701C5
:100C0800873D080084008501403F803F413F813F88
:100C18000800E0000E30E101E13D6008860061084F
:100C280087005F08810008006E08E500AB30E535F5
:100C38006507E6000A30DE006C08080063088104D6
:100C480062080C3E860002308701873D0800630970
:100C5800810562080C3E860001308701873D080047
:100C6800EB00593E86008701010808009717171600
:100C78000F30970420000800860000308701C03F2D
:100C8800C13F0800FA012E2780317108FD00700865
:100C9800FC00F001F1013F2780311F2F07307D0252
:100CA800D13003197C02031C080009307D02C430CE
:100CB80003197C0203180800BC01BC0AB901BA0177
:100CC800C301502F00307D02DD3003197C02031C64
:100CD800762E01307D02543003197C020318762EDB
:100CE800C30A932E02307D02D13003197C02031C03
:100CF800922E03307D02C03003197C020318922E15
:100D08000130F600F701430A8B2EF635F70D890BF3
:100D1800892E7608B9047708BA04742EBC011030FD
:100D28004302031C08003C0BA12E3A0A3904031D98
:100D38009F2E0230FC2EBC01052F02303C06031DFD
:100D4800052F4D27803120003908FB003A08FA00AA
:100D58007A0FB02E0130B12E0030F600F7017B0675
:100D6800F8007708F90078040319052F7B08C400F8
:100D78003E278031003A0319002F1D302000440619
:100D88000319FA2E1F3044060319FA2E0D304406B3
:100D98000319FA2E153044060319FA2E1B3044069F
:100DA8000319FA2E113044060319FA2E123044069C
:100DB8000319FA2E163044060319FA2E4C3044064D
:100DC8000319FA2E043044060319FA2E1E3044067D
:100DD8000319FA2E0E3044060319FA2E143044066D
:100DE8000319FA2E0F304406031DFE2E0330C201EC
:100DF800BC00052F3B149F2E093020004406031920
:100E0800FE2EB901BA01C301080003307D02E930A2
:100E180003197C02031C080004307D02E230031928
:100E28007C02031808000430420203181D2FC20A6E
:100E38000800BB1408003C08003A0319522E013A76
:100E48000319662E033A0319662E013A0319092F6E
:100E58002D2F0800F401F5011A08F4001908F5000F
:100E68007408F300F2017508F2047308F1007208BF
:100E7800F0000800532F1B1D482F1B1071089A0003
:100E8800700899001B14080071089A0070089900EE
:100E98000800210091140800210091100800210089
:100EA80020080139080058340234583402342C34EC
:100EB8000134EE340234EE340234583402345834F7
:100EC80002342C340134EE340234EE3402343C342F
:100ED8003C341E344B344B347108F3007008F20074
:100EE800F336F20CF336F20C7208260096007008FE
:100EF8000339F200F20CF20C720CC03995000800AC
:100F08007108F3007008F200F336F20CF336F20CB5
:100F180072082600920070080339F200F20CF20CF5
:100F2800720CC039910008007108F3007008F200D3
:100F3800F336F20CF336F20C7208250096007008AE
:100F48000339F200F20CF20C720CC039950008005B
:100F58007108F3007008F200F336F20CF336F20C65
:100F680072082500920070080339F200F20CF20CA6
:100F7800720CC039910008007108F3007008F20083
:100F8800F336F20CF336F20C72082C009800970135
:100F9800080091103D083E04031908003E088A0025
:100FA8003D080A008731080091133F0840040319DF
:100FB800080040088A003F080A0087310800983472
:100FC8000734AC3407348434073470340734C034FD
:100FD80007348031E4288031F5288031FB288131BD
:100FE800012981310729FE0012001E00FE0BF82F8F
:020FF8000034C3
:101B8600640080010131890BC42D0034A01CCC2DCA
:101B96004C2FC10A41080339031DD42DC101D52597
:101BA6008D31892FBB1C08009F268D31003A031DFD
:101BB600080020004408043A0319202E093A0319A4
:101BC600312E033A0319202E013A0319202E1E3A0C
:101BD6000319202E033A0319092E063A0319092E72
:101BE600013A0319312E033A0319202E0D3A03192F
:101BF600092E063A0319312E033A0319092E013A22
:101C06000319312E533A0319092E452EF5278D3126
:101C1600031D0800B701B801440846268D31FC00B3
:101C26000430F8007C354F3E86008701403FF900BE
:101C3600413FFA007C0819270800F5278D31031D5E
:101C46000800B701B801440846268D31FC0004306F
:101C5600F800F901FA017C08E6260800B70A03191C
:101C6600B80AEE303706023003193806031D08009D
:101C7600B701B801440846268D31FC00B3268D31E4
:101C86000130DA2E0800F000FF30F100562EF10187
:101C96009D2EF101F10A9D2E0230542E0330542E52
:101CA6000430F1009D2E7008003A03194C2E043AB8
:101CB60003194F2E0E3A0319512E063A0319512EC7
:101CC600013A03194F2E033A0319512E013A03190B
:101CD600532E1E3A03194A2E033A03194C2E063A7E
:101CE6000319532E013A0319512E033A03194C2EA8
:101CF600013A03194C2E0E3A03194A2E033A0319D8
:101D06004F2E013A03194A2E073A0319532E013A68
:101D160003194A2E033A0319512E013A03194C2E80
:101D26005F3A03194F2E0C3A03194F2E013A031945
:101D36004A2E9D2E71080800FB278D3103190134A8
:101D4600200C7F39023A03190134200C7F39043AFA
:101D560003190134200C7F39083A03190134003481
:101D6600F600F7017735A13E860087017708F30074
:101D7600AB30F3357307F4000A30F0007608CE2650
:101D86007407F500863106268D310530F70A77028D
:101D960003180800B52EF100F20170087118F20759
:101DA600F035F1367108031DD02E72080800F100D7
:101DB600F000F00DF00D20002008700603397006C3
:101DC600A000A0140800FB007808F0007A08F200D2
:101DD6007908F1007B35A13EF9267B35A13E8600C8
:101DE60087017B352B3E863106260800F7008600E4
:101DF6008701403FF300413FF40070087107F5008A
:101E060072080318720AF60074087602031D0D2F75
:101E1600730875027708860087010318142F700867
:101E2600E42F7108C03F7208C13F0800FB00780824
:101E3600F0007A08F2007908F1007B35A13E2C27E4
:101E46007B35A13E860087017B352B3E86310626F3
:101E56000800F70086008701403FF300413FF40089
:101E660070087307F50074080318740AF600720800
:101E76007602031D402F71087502770886008701D8
:101E86000318472F7008EA2F7108C03F7208C13F38
:101E96000800200C890C3F390319732FB50A031962
:101EA600B60A3508F00001303605F1007004031D4E
:101EB6000800201C6F2F80272000200CF000700CDB
:101EC6003F39F000F003F00DF00D200870060339DD
:101ED6007006A000201008007727200020140800B4
:101EE600A010B501B601080025009313971326002C
:101EF600931397132C00991308002500931797172F
:101F06002600931797172C0099170800FA017A35BF
:101F16002B3EDC278D31213ECA278D3103189A2F9F
:101F2600EF278D31810741310318810AB42F7A35A5
:101F3600213EDC278D312B3ECA278D310318AB2F6E
:101F4600EF278D31810200304131813B7F31B42F43
:101F56007A352B3E860087017A35213E8631062664
:101F66008D317A35213E86008701403FF000413FA2
:101F7600F1007A35D33E8600413F8A00403F0A0091
:101F860005308F31FA0A7A02031808008A2F860074
:101F9600403FF600413FF7007608023EF800003069
:101FA600773DF90075087902031D08007408780268
:101FB600080086008701403FF400413FF5007A356E
:101FC600080081024131031C81037F31080081072B
:101FD60041310318810A08007A35213E8600023015
:101FE60087010800B70A0319B80A37080339080039
:0A1FF6002100200C7F39013A080099
:020000040001F9
:08000E00ECDF3DFDFFFFFFFFE9
:00000001FF
